:020000040800F2
:100000003808002045010008191600081B160008D2
:100010001F1600082316000827160008000000001D
:100020000000000000000000000000002B16000887
:100030002D160008000000002F16000831160008D9
:100040005F0100085F0100085F0100085F01000810
:100050005F0100085F0100085F0100085F01000800
:100060005F0100085F0100085F0100085F010008F0
:100070005F0100085F0100085F0100085F010008E0
:100080005F0100085F0100085F0100085F010008D0
:100090005F0100085F0100085F0100085F010008C0
:1000A0005F0100085F0100085F0100085F010008B0
:1000B0005F0100085F0100085F0100085F010008A0
:1000C0005F0100085F0100085F0100085F01000890
:1000D0005F0100085F0100085F0100083916000891
:1000E0005F0100085F0100085F0100085F01000870
:1000F0005F0100085F0100085F0100085F01000860
:100100005F0100085F0100085F0100085F0100084F
:100110005F0100085F0100085F0100085F0100083F
:100120005F0100085F0100085F0100085F0100082F
:10013000DFF80CD002F000FD00480047D1150008A0
:10014000380800200648804706480047FEE7FEE7DB
:10015000FEE7FEE7FEE7FEE7FEE7FEE7FEE7FEE777
:1001600047020008310100080CB500200190009002
:100170006C48006840F480306A49086000BF6948F4
:10018000006800F4003000900198401C0190009835
:1001900018B90198B0F5A06FF1D16248006800F479
:1001A000003010B10120009001E000200090009884
:1001B000012843D15C48006840F010005A490860AB
:1001C0000846006820F0030008600846006840F018
:1001D0000200086053484068524948600846406839
:1001E00048600846406840F48060486008464068BF
:1001F00020F47C1048600846406840F4E8104860ED
:100200000846006840F08070086000BF45480068FC
:1002100000F000700028F9D04248406820F0030048
:10022000404948600846406840F00200486000BF0E
:100230003C48406800F00C000828F9D10CBD10B50E
:10024000FFF792FF10BD10B53648006840F001007E
:1002500034490860084640683449084031494860DC
:1002600008460068324908402E4908600846006880
:1002700020F4802008600846406820F4FE004860B2
:100280004FF41F008860FFF7DAFF4FF00060294944
:10029000086010BD10B5002100200022214B5B68D2
:1002A00003F00C0121B1042906D0082928D107E068
:1002B000214B224C236027E01F4B204C236023E07E
:1002C000184B5B6803F47010164B5B6803F48032C4
:1002D000022303EB904022B9194B4343174C236090
:1002E0000DE0104B5B6803F4003323B1144B434320
:1002F000124C236003E0104B4343104C236003E097
:100300000D4B0E4C236000BF00BF064B5B68C3F370
:1003100003130C4CE15C094B1B68CB40074C23607A
:1003200010BD000000100240002002400000FFF855
:10033000FFFFF6FE08ED00E000127A00000000204A
:1003400000093D000400002031490143314A116099
:10035000704770B5002100230F22C47804B32D4CE0
:10036000246804F4E064C4F5E064210AC1F10403E4
:10037000CA40447804FA03F1847814402143090107
:10038000254C0678A155047804F01F050124AC40E3
:1003900005786D11AD0005F1E025C5F8004109E0D3
:1003A000047804F01F050124AC401C4D067876113A
:1003B00045F8264070BD1A4A0A400243154B1B1FE0
:1003C0001A60704739B1134A121D12680243114B6B
:1003D0001B1D1A6006E00F4A121D126882430D4B66
:1003E0001B1D1A607047042808D14FF0E0210969ED
:1003F00041F004014FF0E022116107E04FF0E021ED
:10040000096921F004014FF0E022116170470000FA
:100410000000FA050CED00E000E400E080E100E0FF
:1004200080FFFF1F10B50446FA48844208D101211D
:10043000401500F055FD0021601500F051FD17E05A
:10044000F548844208D10121001500F049FD002142
:10045000201500F045FD0BE0F048844208D1012151
:10046000C80300F03DFD00214FF4004000F038FDCE
:1004700010BD30B50246002000235068E84C2040F3
:100480000D790C6844EA0524204350609068E54CDF
:100490002040D1E902542C434D7944EA45042043DD
:1004A0009060D06A20F470000C7C641EE4B2234398
:1004B00040EA0350D06230BD0021016001714171FA
:1004C0008160C16001210174704721B1826842F0EE
:1004D0000102826003E0826822F0010282607047BC
:1004E00021B1826842F48072826003E0826822F463
:1004F00080728260704710B50023CBB21AB1446895
:100500001C43446002E044689C43446010BD816821
:1005100041F0080181607047014600208A6802F0BE
:1005200008020AB1012000E000207047816841F014
:10053000040181607047014600208A6802F00402CD
:100540000AB1012000E00020704721B1826842F426
:10055000A002826003E0826822F4A00282607047F9
:10056000014600208A6802F480020AB1012000E0FE
:100570000020704710B50A4600210023416821F48D
:100580006041531E41EA4331416010BD21B14268D0
:1005900042F40062426003E0426822F4006242607A
:1005A0007047F0B504460D4600200021092D11DDED
:1005B000E068A5F10A0606EB4607072606FA07F1EA
:1005C0008843A5F10A0606EB460603FA06F108433E
:1005D000E0600CE0206905EB4507072606FA07F105
:1005E000884305EB450603FA06F108432061072A14
:1005F0000FDA606B561E06EB86071F2606FA07F118
:100600008843561E06EB860605FA06F1084360632A
:1006100022E00D2A0FDA206BD61F06EB86071F2675
:1006200006FA07F18843D61F06EB860605FA06F19F
:100630000843206310E0E06AA2F10D0606EB86078E
:100640001F2606FA07F18843A2F10D0606EB86067F
:1006500005FA06F10843E062F0BD21B1826842F478
:100660008012826003E0826822F480128260704708
:100670000146C86C80B2704766484C3000687047CD
:1006800021B1426842F48062426003E0426822F491
:1006900080624260704721B1426842F480524260F9
:1006A00003E0426822F48052426070470A4600210B
:1006B000816821F4E04111438160704721B1826873
:1006C00042F40042826003E0826822F400428260C9
:1006D000704721B1826842F40212826003E08268AE
:1006E00022F4021282607047014600208A6802F4F8
:1006F00000120AB1012000E000207047F0B5044666
:100700001546002000220026092911DDE068A1F12C
:100710000A0707EB470C072707FA0CF29043A1F1F1
:100720000A0707EB470703FA07F21043E0600CE003
:10073000206901EB410C072707FA0CF2904301EB0B
:10074000410703FA07F210432061A06BC0F3015682
:10075000EF1C06F1010CA7EB0C0707EB870C1F271A
:1007600007FA0CF29043EF1C06F1010CA7EB0C0703
:1007700007EB870701FA07F21043A063F0BD10B53D
:100780000A4600210023816B21F44011531E41EAE7
:100790000351816310BD08B5002300930090009BB6
:1007A0000B440093009B1A6008BD08B50246002068
:1007B0000090009201F12800009B184400900098DE
:1007C000006880B208BD0A4600214168164B1940F6
:1007D0001143416070474162826270470A460021BE
:1007E000416821F01F0111434160704740B1094940
:1007F0000831096841F40001064A0832116007E037
:1008000004490831096821F40001024A08321160E4
:10081000704700000024014000280140003C0140D6
:10082000FFFEF0FFFDF7F1FFFFFD3FFF0246002056
:1008300013680B400BB1012000E000207047CA4351
:100840000260704770B502460020002300240B129E
:100850005568CEB205EA060415681D4015B10CB105
:10086000012000E0002070BD00220A12D343036083
:100870007047000010B50446CC48844208D10121DD
:10088000042000F02DFB0021042000F029FB46E0AD
:10089000C748844208D10121082000F021FB002133
:1008A000082000F01DFB3AE0C248844208D1012133
:1008B000102000F015FB0021102000F011FB2EE0AD
:1008C000BD48844208D10121202000F009FB00210D
:1008D000202000F005FB22E0B848844208D1012125
:1008E000402000F0FDFA0021402000F0F9FA16E067
:1008F000B348844208D10121802000F0F1FA0021A0
:10090000802000F0EDFA0AE0AE48844207D10121D0
:10091000801500F0E5FA0021A01500F0E1FA10BD05
:1009200010B50121084600F0DBFA0021012000F09B
:10093000D7FA10BD2DE9F04102460025002600201F
:1009400000230024002791F803C00CF00F0591F854
:1009500003C00CF0100CBCF1000F03D091F802C0E2
:100960004CEA050591F800C0BCF1000F31D01468C5
:1009700000202BE04FF0010C0CFA00F3B1F800C09E
:100980000CEA03069E4220D183004FF00F0C0CFAB4
:1009900003F7BC4305FA03FC4CEA040491F803C0D6
:1009A000BCF1280F06D14FF0010C0CFA00FCC2F884
:1009B00014C00AE091F803C0BCF1480F05D14FF014
:1009C000010C0CFA00FCC2F810C0401C0828D1D35E
:1009D0001460B1F800C0BCF1FF0F34DD5468002092
:1009E0002EE000F1080C4FF0010808FA0CF3B1F802
:1009F00000C00CEA03069E4221D183004FF00F0C89
:100A00000CFA03F7BC4305FA03FC4CEA040491F822
:100A100003C0BCF1280F05D100F1080C08FA0CF84E
:100A2000C2F8148091F803C0BCF1480F07D100F15F
:100A3000080C4FF0010808FA0CF8C2F81080401CAE
:100A40000828CED35460BDE8F0814FF6FF710180D5
:100A5000022181700421C170704702460020936812
:100A60000B400BB1012000E0002070470146886870
:100A700080B2704702460020D3680B400BB10120C2
:100A800000E0002070470146C86880B270470161ED
:100A90007047416170470AB1016100E041617047F0
:100AA000C16070474FF480320A4382618161826184
:100AB00082698269704702460020434B18684FF6EE
:100AC0008073184040EA021008433F4B186070479B
:100AD0003E49C8617047F0B50A4600230024002152
:100AE000002500F00046B6F1004F02D1364EF16904
:100AF00001E0354E7168C0F3034583B200F440163F
:100B0000B6F5401F08D121F070612F4E766826F0AF
:100B100070662D4F7E6012E000F48016B6F5801FDF
:100B200006D1032606FA05F4A14341F0706106E000
:100B3000460D360103FA06F6B14341F0706122B169
:100B4000460D360103FA06F6314300F00046B6F1D1
:100B5000004F02D11C4EF16101E01B4E7160F0BDEF
:100B600030B500228B071C0F0F2303FA04F2164B3B
:100B700008338C1053F824309343134C08348D10F1
:100B800044F8253023468C1053F824308C07240F6A
:100B900000FA04F423430C4C08348D1044F825303B
:100BA00030BD0A49DC310860704700000008014090
:100BB000000C0140001001400014014000180140E9
:100BC000001C0140002001400000014000002042C4
:100BD000DF48006840F00100DD49086008464068D1
:100BE000DC490840DA49486008460068DA490840AC
:100BF000D74908600846006820F48020086008464D
:100C0000406820F4FE0048604FF41F008860704781
:100C1000CF49096821F48031CD4A11601146096835
:100C200021F480211160B0F5803F03D0B0F5802F12
:100C30000ED106E0C649096841F48031C44A11600A
:100C400007E0C349096841F4A021C14A116000E0EE
:100C500000BF00BF704710B50146002200230020EE
:100C60004A11012A02D1BA4C236806E0022A02D1B5
:100C7000B74C236A01E0B64C636A01F01F020124FD
:100C800094401C400CB1012000E0002010BD38B59C
:100C9000002000900024002500BF3120FFF7DBFF7B
:100CA00005460098401C00900098B0F5A06F01D058
:100CB000002DF2D03120FFF7CEFF08B1012400E073
:100CC0000024204638BD01460020A14A106820F0CB
:100CD000F80040EAC10010607047A0490860704702
:100CE000024600209A4B586820F47C1042EA010327
:100CF0001843974B586070479849086670470146FB
:100D00000020934A506820F0030008435060704769
:100D10008F48406800F00C007047014600208C4A64
:100D2000506820F0F00008435060704701460020F2
:100D3000874A506820F4E0600843506070470146DD
:100D40000020834A506820F4605040EAC10050609F
:100D5000704729B17E4A527A02437D4B5A7204E0B1
:100D60007B4A527A82437A4B5A7270477B49D83118
:100D70000860704701460020754A506820F44040E2
:100D80000843506070470021714A20321170704A48
:100D900082F82010012802D004280AD104E00121A1
:100DA0006B4A2032117005E00521694A203211702A
:100DB00000E000BF00BF70476949086070476449A0
:100DC000096A0143624A1162704765494439086003
:100DD000704730B500210022002400235C4D6D686F
:100DE00005F00C0121B1042905D0082923D105E023
:100DF0005C4D056022E05B4D05601FE0544D6D6861
:100E000005F47012524D6D6805F48034022505EB2F
:100E100092421CB9544D554305600BE04C4D6D6832
:100E200005F400351DB1504D5543056002E04D4DB0
:100E30005543056002E04B4D056000BF00BF444DC7
:100E40006D6805F0F0010909484D6B5C0568DD40EF
:100E500045603F4D6D6805F4E061090A434D6B5CE8
:100E60004568DD4085603A4D6D6805F46051C90AFA
:100E70003E4D6B5C4568DD40C560354D6D6805F4E1
:100E80004041890B3A4D6B5CC568B5FBF3F50561D4
:100E900030BD29B12E4A526902432D4B5A6104E0FC
:100EA0002B4A526982432A4B5A61704729B1284A1A
:100EB00092690243264B9A6104E0254A9269824373
:100EC000234B9A61704729B1214AD2690243204BD2
:100ED000DA6104E01E4AD26982431D4BDA61704731
:100EE00029B11B4AD2680243194BDA6004E0184A60
:100EF000D2688243164BDA60704729B1144A1269EE
:100F00000243134B1A6104E0114A12698243104BE9
:100F10001A61704712494039086070470F49C86428
:100F200070470B49C87170470948406A40F08070AB
:100F300007494862704701460020054A92680A4006
:100F40000AB1012000E00020704701498872704713
:100F5000001002400000FFF8FFFFF6FE00004242D2
:100F60008004424200127A0000093D001400002073
:100F70002400002001684FF6FE721140016000213C
:100F8000016041608160C1608D49884208D18C490F
:100F90000839496841F00F01894A083A51608AE0EE
:100FA00087491431884208D185490839496841F098
:100FB000F001834A083A51607DE081492831884236
:100FC00008D17F490839496841F470617C4A083A80
:100FD000516070E07A493C31884208D1784908393B
:100FE000496841F47041764A083A516063E07449B7
:100FF0005031884208D172490839496841F470215A
:101000006F4A083A516056E06D496431884208D110
:101010006B490839496841F47001694A083A5160DE
:1010200049E067497831884208D1654908394968FB
:1010300041F07061624A083A51603CE0614988427F
:1010400006D1011F096841F00F01021F116032E053
:101050005C491431884208D15A49091F096841F096
:10106000F001584A121F116025E056492831884284
:1010700008D15449091F096841F47061514A121F8F
:10108000116018E04F493C31884208D14D49091F91
:10109000096841F470414B4A121F11600BE0494945
:1010A0005031884207D14749091F096841F470212E
:1010B000444A121F1160704710B50022026847F6BB
:1010C000F0739A430C6A8B6823430C6923434C6981
:1010D00023438C692343CC6923434C6A23438C6AA2
:1010E00023431A430260CB6843600B6883604B68FC
:1010F000C36010BD0021016041608160C160016179
:1011000041618161C161016241628162704721B1C7
:10111000026842F00102026004E002684FF6FE73CA
:101120001A40026070471AB103680B43036002E083
:1011300003688B430360704741607047014648680D
:1011400080B2704701460020002201F080531BB19D
:101150001C4B083B1A6802E0194B083B1A6802EA6C
:1011600001030BB1012000E00020704700F0805126
:1011700019B11449091F086002E011490839486093
:10118000704701460020002201F080531BB10D4B37
:10119000083B1A6802E00A4B083B1A6802EA01039E
:1011A0000BB1012000E00020704700F0805119B120
:1011B0000449091F086002E0014908394860704786
:1011C000080002400804024010B50446FB4884426F
:1011D00009D101218803FFF783FE00214FF48040ED
:1011E000FFF77EFE32E0F648844209D1012148042F
:1011F000FFF783FE00214FF40030FFF77EFE25E06D
:10120000F048844209D101218804FFF776FE0021CD
:101210004FF48020FFF771FE18E0EB48844209D1BB
:101220000121C804FFF769FE00214FF40020FFF7F9
:1012300064FE0BE0E548844208D101210805FFF770
:101240005CFE00214FF48010FFF757FE10BD2DE922
:10125000F04786B005460E460024A24600BFA146D0
:101260000027B08900B100BF2F462C8A4CF6FF70D2
:101270000440F08804432C82AC894EF6F3100440FD
:10128000B08831890843718908430443AC81AC8A32
:101290004FF6FF400440B0890443AC8201A8FFF739
:1012A00098FDC648874202D1DDF810A001E0DDF8C4
:1012B0000CA0A88900F4004040B10AEBCA0000EB82
:1012C0000A1031684900B0FBF1F807E00AEBCA00E8
:1012D00000EB0A1031688900B0FBF1F86420B8FB1C
:1012E000F0F004012009642101FB1089A88900F4B1
:1012F000004040B1322000EBC900B0FBF1F000F03B
:101300000700044308E0322000EB09106421B0FB21
:10131000F1F000F00F0004432C8106B0BDE8F08727
:101320004FF41651016000218180C18001810C21A0
:10133000418100218181704710B502460020108A4A
:101340004FF2FF0318400B884C8823438C882343BB
:10135000CC8823431843108210BD002101804180B6
:101360008180C180704721B1828942F4005282811C
:1013700004E082894DF6FF731A4082817047F0B510
:101380000346002400260025002040F66A17B942D3
:1013900000D100BF1846C1F3421401F01F06012717
:1013A00007FA06F5012C01D10C3004E0022C01D122
:1013B000103000E014301AB107682F43076002E0D4
:1013C0000768AF430760F0BD1AB1838A0B4383827D
:1013D00002E0838A8B4383827047028A4FF6F07360
:1013E0001A400282028A0A430282704782894FF2BF
:1013F000FF731A40828182890A438281704721B13A
:10140000828942F00202828104E082894FF6FD73F4
:101410001A4082817047028A4FF6DF731A400282B7
:10142000028A0A430282704721B1028A42F4804252
:10143000028204E0028A4BF6FF731A400282704770
:10144000C1F308028280704701468888C0F3080013
:101450007047818941F0010181817047028BD2B2CE
:101460000283028B42EA012202837047028B02F45C
:101470007F420283028B0A430283704721B1828A32
:1014800042F02002828204E0828A4FF6DF731A4023
:101490008282704721B1828A42F01002828204E087
:1014A000828A4FF6EF731A408282704721B1828A96
:1014B00042F00802828204E0828A4FF6F7731A40F3
:1014C0008282704721B1828942F40042828103E026
:1014D0008289C2F30E028281704721B1828A42F46E
:1014E0000062828204E0828A4FF2FF731A40828295
:1014F0007047828A4FF6FB731A408282828A0A43BF
:101500008282704721B1828A42F00202828204E024
:10151000828A4FF6FD731A4082827047024600208D
:10152000B1F5007F00D100BF13880B400BB1012043
:1015300000E00020704701F40072B2F5007F00D196
:1015400000BFCA430280704770B5024600240023E2
:101550000025002040F66A16B14200D100BFC1F359
:10156000421501F01F03012606FA03F3012D02D1F3
:101570009689334006E0022D02D1168A334001E0FD
:10158000968A33400C12012606FA04F41688344079
:1015900013B10CB1012000E0002070BD10B5002295
:1015A000002340F66A14A14200D100BF0A120124B0
:1015B0009440A3B2DC43048010BD00000038014019
:1015C0000044004000480040004C004000500040F3
:1015D00000F070F800F0CCF800F0A2F900F06EFF17
:1015E00003A001F0EDFA00F00FFE00BFFEE70000DF
:1015F0000D0AD2B0BBF02057462D45535038323635
:10160000362057694669C4A3BFE9B2E2CAD4C0FD17
:10161000B3CC0D0A00000000704700BFFEE700BF1A
:10162000FEE700BFFEE700BFFEE770477047704768
:1016300010B500F0E4F810BD10B540F225511B487C
:10164000FFF782FFD8B11948FFF7FEFEC4B2184871
:10165000B0F80004C0F30E0040F2FF3188420EDA09
:101660001349B1F80014C1F30E00411C104AB2F83E
:10167000002461F30E020E49A1F800240C5440F23C
:1016800024410A48FFF760FF01280DD10848B0F84F
:10169000000420F4004000F500400549A1F80004D2
:1016A0000248FFF7D1FEC4B210BD00000048004060
:1016B0003400002000B585B001218803FFF7F6FB58
:1016C00001210420FFF7F2FB4FF40070ADF8100089
:1016D00018208DF8130003208DF8120004A9224869
:1016E000FFF728F94FF48060ADF8100004208DF862
:1016F000130004A91C48FFF71DF94FF4E1300090D6
:101700000020ADF80400ADF80600ADF80800ADF813
:101710000C000C20ADF80A0069461448FFF797FD4D
:1017200001211248FFF71FFE05B000BD70B5044649
:101730000D46E1B20D48FFF783FE00BF80210B4844
:10174000FFF7ECFE0028F9D0204670BD10B5044626
:1017500000BF20210548FFF7E1FE0028F9D003482B
:10176000FFF772FE10BD0000000801400038014084
:1017700030B527480068274AB0FBF2F1B1F1807F0D
:1017800001D301201DE021F07F40401E4FF0E022F8
:10179000506150170F22002807DA13071D0E1E4B49
:1017A00000F00F04241F1D5503E013071C0E1B4BF4
:1017B0001C5400BF00204FF0E02290610720106110
:1017C000002008B100BFFEE74FF0E020006920F0E4
:1017D00001004FF0E021086130BD01B510490098CB
:1017E00008604FF0E020006940F001004FF0E02178
:1017F000086100BF0A4800680028FBD108BD0848FE
:10180000006820B106480068401E0549086070471E
:101810000000002040420F0018ED00E000E400E06E
:101820002800002008B54FF4A060FEF78DFD2720AA
:101830008DF8000000208DF801008DF802000120D5
:101840008DF803006846FEF784FD08BD00B585B03D
:1018500001218804FFF737FB01210820FFF726FB51
:101860004FF48060ADF8100018208DF813000320AD
:101870008DF8120004A9F748FFF75CF84FF40060F8
:10188000ADF8100004208DF8130004A9F148FFF70B
:1018900051F84FF4E13000900020ADF80400ADF8AD
:1018A0000600ADF80800ADF80C000C20ADF80A00F9
:1018B0006946E948FFF7CBFC012240F22551E64892
:1018C000FFF75DFD012240F22441E348FFF757FD99
:1018D000FFF7A8FF0121E048FFF745FD05B000BD77
:1018E00008B501210802FFF7E1FA4FF40050ADF806
:1018F000000010208DF8030003208DF802006946D7
:10190000D648FFF717F801210802FFF7CFFA4FF486
:101910008040ADF800006946D048FFF70BF808BDDD
:1019200010B5FFF7DDFFFFF791FF4FF48041CB4883
:10193000FFF7ADF84FF40051C848FFF7AAF810BD03
:1019400010B54FF48041C548FFF7A3F8C448FFF72E
:1019500044FF4FF48041C148FFF799F810BD2DE9CD
:10196000F04106460C4615461F46BE48B0F8000436
:101970006FF30E00BB49A1F800043246BAA1B64885
:1019800000F0BFFB1CB915B90120BDE8F0814FF490
:101990007A7107FB01F0FFF720FF0020B149B1F891
:1019A0000014C1F30E01AF4A50541146B0A001F02B
:1019B00007F9B4B1ADB12146AA4800F09FFD08B1C6
:1019C000012000E0002040B92946A64800F096FD1D
:1019D00008B1012000E0002008B10120D5E7002077
:1019E000D3E744B121469F4800F088FD08B10120AB
:1019F000CBE70020C9E729469A4800F07FFD08B1EF
:101A00000120C2E70020C0E710B500244FF4804158
:101A10009248FFF73CF89748FFF7DFFE0CE04FF4E1
:101A2000FA73002294A195A0FFF799FF00B110BDB1
:101A3000FFF786FF601CC4B20A2CF0DB00BFF6E79C
:101A400010B5044624B1012C0AD0022C18D10FE0A5
:101A500040F6C4138AA288A18CA0FFF780FF10BDB6
:101A600040F6C41386A284A18BA0FFF778FFF6E7A7
:101A700040F6C41382A280A18AA0FFF770FFEEE7B0
:101A80000020ECE730B59FB004460D462B462246B9
:101A900087A101A801F0A4F841F28833002276A1C1
:101AA00001A8FFF75CFF1FB030BD70B5A0B00446C1
:101AB0000D4616462B46224682A102A8009601F04A
:101AC0008FF84FF47A7300226BA102A8FFF747FF4B
:101AD00020B070BD10B586B004460CB1012000E006
:101AE000002002467DA101A801F07AF84FF4FA73B4
:101AF000002261A101A8FFF732FF06B010BDF0B5CA
:101B0000B9B006460F4614461D46642120A800F0D1
:101B1000EAFC16B1012E10D107E03B4673A274A176
:101B200020A8009401F05CF808E03B4674A270A184
:101B300020A8009401F054F800E000BF00BF052D7C
:101B400006DA20AB2A466FA102A801F049F804E0AA
:101B500020AA71A102A801F043F84FF47A6372A29F
:101B600045A102A8FFF7FBFE39B0F0BD70B5BCB0CF
:101B700004460D461646FCB12B4601226EA11EA856
:101B800001F02EF8324671A1684601F029F84FF4B1
:101B9000FA73002238A11EA8FFF7E1FE50B14FF4FE
:101BA000FA73002234A16846FFF7D9FE10B1012074
:101BB0003CB070BD0020FBE72B4600225EA11EA8B2
:101BC00001F00EF84FF4FA7300222BA11EA8FFF7C4
:101BD000C6FEEDE710B54FF4FA73002226A15FA010
:101BE000FFF7BDFEA0B161A11E4800F087FC08B15F
:101BF000022010BD60A11B4800F080FC08B103204A
:101C0000F7E760A1174800F079FC08B10420F0E77D
:101C10000020EEE710B500244FF4FA73002216A15D
:101C20004EA0FFF79CFE002812D059A10D4800F0ED
:101C300065FC10B144F0010401E024F0010458A156
:101C4000084800F05BFC10B144F00204B2E0AFE0E1
:101C5000CEE00000000C01400048004000200140A0
:101C600020A107003400002025730D0A00000000A9
:101C70002573000040420F004F4B0000415400000C
:101C80006E6F206368616E676500000041542B43EE
:101C9000574D4F44453D310041542B43574D4F4420
:101CA000453D320041542B43574D4F44453D330091
:101CB00041542B43574A41503D222573222C222563
:101CC0007322000041542B43575341503D2225734A
:101CD000222C222573222C312C25640041542B43C5
:101CE00049504D55583D25640000000054435000B4
:101CF000222573222C222573222C2573000000003C
:101D00005544500041542B43495053544152543D83
:101D100025642C257300000041542B434950535433
:101D20004152543D25730000414C524541592043D6
:101D30004F4E4E454354000041542B4349505345A8
:101D4000525645523D25642C2573000041542B43C7
:101D5000495053544F3D25730000000041542B431C
:101D600049505354415455530000000053544154BA
:101D700055533A320D0A00005354415455533A33E7
:101D80000D0A00005354415455533A340D0A0000D3
:101D90002B4349505354415455533A302C000000C2
:101DA0002B4349505354415455533A312C000000B1
:101DB00024F0020484A1884800F0A0FB10B144F094
:101DC000040401E024F0040484A1834800F096FB9D
:101DD00010B144F0080401E024F0080483A17E4817
:101DE00000F08CFB10B144F0100401E024F010046A
:101DF000204610BD2DE9F04105460F464FF4FA7319
:101E00000022AFF28C117DA0FFF7A9FD7EA17248E0
:101E100000F074FB06460EB1B61D02E00020BDE8DE
:101E2000F081002409E0305D2855285D222802D188
:101E30000020285503E0601CC4B2BC42F3DB00BFA5
:101E40000120ECE710B54FF4FA730022AFF2D8117D
:101E50006FA0FFF784FD08B9002010BD4FF4FA739E
:101E60006FA2AFF2EC116FA0FFF779FDF5E710B5A7
:101E70006F48FFF7B2FC6FA16F4800F042F96F485E
:101E8000FFF7ABFC10BD2DE9F04186B007460C46CC
:101E900015461E464FF0000847B12246AFF23021EA
:101EA000654800F02EF94FF001081BE0052E06DA18
:101EB000AB1C324662A101A800F092FE04E0AA1C0D
:101EC00064A101A800F08CFE6423002265A101A892
:101ED000FFF745FD4FF4FA73002263A12046FFF798
:101EE0003EFD8046404606B0BDE8F08170B5044630
:101EF00000253948B0F800046FF30E003649A1F808
:101F000000040846B0F8000420F40040A1F80004E2
:101F100000BF3148B0F80004C00B0028F9D0002001
:101F20002D49B1F80014C1F30E012B4A50540CB1E5
:101F3000154605E04EA1284800F0E0FA00B1264D14
:101F4000284670BD2DE9F041054664230022AFF21A
:101F5000D82149A0FFF703FD1EA11F4800F0CEFACB
:101F60008046B8F1000F09D046A11B4800F0C6FA20
:101F700000F10B07A8EB0700C6B202E00020BDE8A5
:101F8000F081002403E0385D2855601CC4B2B442DF
:101F9000F9DB0020A8550120F1E710B588B0044610
:101FA00022463BA1684600F01BFE41F28833002226
:101FB000AFF23C316846FFF7D2FC10B1012008B007
:101FC00010BD0020FBE700002B43495053544154FF
:101FD00055533A322C000000340000202B43495066
:101FE0005354415455533A332C0000002B4349506D
:101FF0005354415455533A342C00000041542B4360
:102000004946535200000000415049502C22000024
:1020100041542B4349504D4F44453D310000000091
:102020003E00000041542B43495053454E440000AC
:1020300040420F002B2B2B000048004020A107003E
:1020400041542B43495053454E443D25642C25644F
:102050000000000041542B43495053454E443D2558
:10206000640000003E20000053454E44204F4B00CA
:102070002B4950440000000041542B43574C494623
:102080000000000041542B43574C49460D0D0A00F7
:1020900041542B43495041503D22257322000000FA
:1020A000F0B503460D461646002729460A2E03D0F2
:1020B000002008702846F0BD33B9302001F8010B2C
:1020C000002008702846F6E7002B03DA2D2001F8DF
:1020D000010B5B4242F210720DE093FBF2F404B983
:1020E00037B104F1300001F8010B04FB1233012772
:1020F0000A2092FBF0F2002AEFDC0020087028464C
:10210000D9E70FB470B586B006460CA8019073E00D
:102110000B9800785C281CD10B98401C0B90007821
:102120006E2809D072280FD10D213046FFF788F9AB
:102130000B98401C0B900BE00A213046FFF780F90A
:102140000B98401C0B9003E00B98401C0B9000BFB9
:102150004BE00B980078252840D10B98401C0B9041
:102160000078642818D0732833D1019810C80190E2
:102170000BE021783046FFF763F900BF802130463D
:10218000FFF7CCF90028F9D0641C20780028F0D1A2
:102190000B98401C0B9020E0019820C801900A2267
:1021A00002A92846FFF77CFF02AC0BE021783046FD
:1021B000FFF746F900BF80213046FFF7AFF900284E
:1021C000F9D0641C20780028F0D10B98401C0B90AB
:1021D00003E00B98401C0B9000BF06E00B9810F832
:1021E000011B0B903046FFF72BF900BF80213046D2
:1021F000FFF794F90028F9D00B980078002887D1D0
:1022000006B070BC5DF814FB9AB000BF00BF00BF01
:1022100000BF642101A800F066F94BA000F0D0FCDB
:102220000120FFF70DFC00BF4EA0FFF7B6FE00280F
:10223000FAD000BF00224EA150A0FFF736FC0028C4
:10224000F8D00120FFF746FC00BF4EA24FA10120AD
:10225000FFF78CFC0028F8D0142101A8FFF7CAFD75
:102260004AA301AA45A14B4800F0AAFC4A48B0F88D
:1022700000046FF30E004849A1F800040846B0F8C6
:10228000000420F40040A1F800045BE04248B0F8EC
:102290000004C00B002855D0002240F225513F48D1
:1022A000FFF76DF800203C49B1F80014C1F30E01AE
:1022B000394A50543A48008800F0E9F94FF08B4110
:1022C000009000F034F9834600F0E6F906464FF03E
:1022D0006632344B00F069F9814600F0F0F980462F
:1022E000404600F0D9F9064632460B462EA101A819
:1022F00000F076FC30A1284800F000F9041E0CD054
:1023000060793038C5B201A800F00AF906462B46BC
:10231000324601A90020FFF7B6FD1F48B0F80004BF
:102320006FF30E001C49A1F800040846B0F8000441
:1023300020F40040A1F80004012240F22551174882
:10234000FFF71DF8A2E700000D0AD5FDD4DAC5E4B9
:10235000D6C32045535038323636202E2E2E2E2E00
:102360002E0D0A003139322E3136382E342E3100FE
:102370003132333435363738390000006573703800
:102380003236360031383030000000003830383016
:1023900000000000E4340008340000200048004041
:1023A0002C00002066660A4043757272656E7420C8
:1023B000763A2025662056002B4950442C00000018
:1023C00008B501210846FEF764FD01214FF40470B1
:1023D000FEF76CFD0220ADF8000000208DF8030030
:1023E00069463948FEF7A6FA08BD00B591B03748EE
:1023F000FEF7C0FD3648069036480790002008904A
:102400000120099000200A900B904FF480700C90EE
:1024100080000D9020200E9000020F900020109060
:1024200006A92A48FEF748FE01212848FEF76FFE5C
:10243000002001908DF8080001208DF809004FF46C
:10244000602003900020049001208DF8140001A961
:102450001F484C38FEF70DF84FF44040FEF78AFC59
:10246000052301220B211A484C38FEF79AF8012166
:1024700017484C38FEF734F8012115484C38FEF760
:1024800024F813484C38FEF742F800BF10484C3887
:10249000FEF742F80028F9D10D484C38FEF746F80F
:1024A00000BF0B484C38FEF746F80028F9D101214F
:1024B00007484C38FEF749F811B000BD10B5FFF7DA
:1024C0007FFFFFF792FF10BD00100140080002409F
:1024D0004C2401402C000020D2B201E000F8012B76
:1024E000491EFBD270470022F6E710B513460A4694
:1024F00004461946FFF7F0FF204610BD30B50546EB
:102500002A460B4612F8010B13F8014B08B1A04202
:10251000F8D01CB1002802D06D1CF1E7284630BD70
:10252000421C10F8011B0029FBD1801A704730B4FF
:1025300080EA010202F0004530F0004221F0004044
:1025400013D090B1C30DD40DC2F31601C0F3160021
:10255000E41A41F4000140F400027D34914201D3B9
:10256000641C00E04900002C02DA30BC00207047F7
:102570004FF400000023914201D3891A034340081D
:102580004FEA4101F7D151B1914202D14FF00041E0
:1025900005E002D24FF0010101E06FF0010103EB11
:1025A000C450284430BC00F0EDB82DE9FE4F81EA5C
:1025B000030404F0004421F0004100944FF0000BAC
:1025C00023F0004350EA01045ED052EA03045BD0DA
:1025D000C3F30A54C1F30A552C44A4F2F334019412
:1025E000A0FB0254C1F3130141F48011C3F31303A0
:1025F00043F4801301FB024400FB034E840A970A54
:1026000044EA815447EA8357A4FB076802958D0A80
:1026100005FB07854FEA932C04FB0C542705029D0C
:102620004FEA065847EA1637B5EB08056EEB070C7C
:10263000870E920E47EA811742EA8312A7FB020136
:10264000B6EB0B0164EB00042B0D43EA0C335E1870
:1026500044EB1C50DA465146E7FB0201C5F3130474
:102660004FEA0B3343EA14534FEA0432019C43EA26
:102670000603A4F10C040294009CCDE900B400F020
:10268000C7F803B0BDE8F08F00200146F9E79623B4
:102690000022114600F07FB800F0004230F0004008
:1026A0000AD0C10D01F56071C0F3160042EA015174
:1026B000C20840071143704700200146704701F0EF
:1026C000004330B421F0004150EA010206D00A0D67
:1026D000A2F56072C1F31301002A02DC30BC0020B5
:1026E0007047440F44EAC104C100E01830BC00EB5D
:1026F000C25000F047B830B50B46014600202022FA
:10270000012409E021FA02F59D4205D303FA02F5FE
:10271000491B04FA02F52844151EA2F10102F1DC5E
:1027200030BD2DE9F05F0546002092469B46884665
:102730000646814640241BE028464146474622463D
:1027400000F01BFA53465A46C01A914110D3114665
:102750001846224600F002FA2D1A67EB01084F4690
:1027600022460120002100F0F9F917EB00094E4143
:10277000201EA4F10104DFDC484631462A464346C8
:10278000BDE8F09F0029A8BF7047401C490008BF62
:1027900020F00100704710B4B0FA80FC00FA0CF091
:1027A00050EA010404BF10BC704749B1CCF12004C9
:1027B00021FA04F411FA0CF118BF01212143084356
:1027C000A3EB0C01CB1D4FEA00614FEA102042BF82
:1027D000002010BC704700EBC35010440029A4BF78
:1027E00010BC7047401C490008BF20F0010010BC1D
:1027F000704710B5141E73F1000408DA401C41F153
:10280000000192185B411A4301D120F0010010BD74
:102810002DE9F04D92469B4611B1B1FA81F202E0EA
:10282000B0FA80F22032904600F098F904460F4644
:1028300040EA0A0041EA0B0153465A46084313D0C6
:10284000114653EA010019D0C8F14002504600F089
:1028500094F905460E4650465946424600F07EF928
:10286000084305D0012004E020463946BDE8F08D3C
:102870000020054346EAE0762C4337430A98630577
:10288000E40AA0EB08000022FD0A44EA47540A309B
:1028900002D500200146E9E7010510196941DDE98B
:1028A000084500196941BDE8F04DA2E72DE9FE4F4A
:1028B000804681EA0300C00F0C46009021F00041E1
:1028C00023F00045B8EB0200A94105D2404621465D
:1028D00090461C460B46024623F00040104347D06A
:1028E000270DC7F30A00C3F30A510290401A019062
:1028F00040286BDAC3F3130040F4801B0098924623
:1029000020B10023D2EB030A63EB0B0B019859466D
:10291000C0F14002504600F021F906460D465046EF
:102920005946019A00F039F910EB08006141002482
:1029300087EA115284EAE7731A4340D0009A62B3DF
:10294000019A012A4FEA075215DC001B61EB0201D4
:102950004FF0004202EA0752CDE90042001C41F567
:10296000801132462B46FFF753FF03B0BDE8F08FCE
:1029700040462146F9E7001B61EB0201001C41F5CE
:10298000801300185B412018A2F5001747EB0301E4
:1029900040EAD570B6196D4111E06D084FEA360670
:1029A00045EAC0754FEA0752001B61EB0201001CAB
:1029B00041F5801149084FEA300000195141324673
:1029C0002B4603B0BDE8F04FFFF713BF009801227C
:1029D00040000023D0EB020263EBE0730098214635
:1029E0004FEAE074B8EB000061EB0401E9E783F023
:1029F00000435BE781F0004158E72DE9F04D81EAA3
:102A0000030404F0004B21F0004514464FF0000A87
:102A100023F0004150EA050220D054EA01021DD003
:102A2000C5F30A570246C5F31303C1F31300C1F3FC
:102A30000A5640F4801543F48013A7EB0608101BD8
:102A4000D64608F2FD3873EB050002D308F1010801
:102A500001E092185B41B8F1000F03DA0020014653
:102A6000BDE8F08D00204FF48011064684460EE04C
:102A7000171B73EB050705D3121B63EB0503064316
:102A80004CEA010C49084FEA300092185B4150EAC9
:102A90000107EDD152EA030012D082EA040083EA72
:102AA0000501084305D0101BAB4106D201220023CB
:102AB00006E000224FF0004302E06FF001025310E5
:102AC0001AEB06004CEB085110EB0A0041EB0B012E
:102AD000BDE8F04DFFF78DBEC1F30A52C1F31301FB
:102AE00040F2FF3341F480119A4202DA002001469D
:102AF000704740F233439A42A2F2334202DC524220
:102B000000F03BB800F02AB830B5041E71F10004A3
:102B100004DB4FF00044404264EB0101141E73F1EA
:102B2000000405DB1C464FF00043524263EB0403F4
:102B3000994208BF904230BD064C074D06E0E06860
:102B400040F0010394E8070098471034AC42F6D3F4
:102B5000FDF7F2FA5435000874350008202A04DB2A
:102B6000203A00FA02F1002070479140C2F12003A0
:102B700020FA03F3194390407047202A04DB203ADF
:102B800021FA02F00021704721FA02F3D040C2F18D
:102B900020029140084319467047202A06DBCB17D4
:102BA000203A41FA02F043EAE07306E041FA02F308
:102BB000D040C2F1200291400843194670470000FE
:102BC0000FB4054B10B503A9044A029800F0EEF8C3
:102BD00010BC5DF814FB00002D1700083000002029
:102BE0000FB4084B10B504A902AA039800F0DEF850
:102BF000044602A9002000F070FC204610BC5DF8DD
:102C000014FB0000DB34000802E008C8121F08C1F2
:102C1000002AFAD170477047002001E001C1121F5D
:102C2000002AFBD1704700002DE9FF5F82B0002130
:102C3000DDE90430020DDDF840B0034318D044F65E
:102C40001050A2F2FF3242431514119801281FD0F0
:102C5000A5EB0B00401C5FEA000A4FF000064E4F48
:102C6000DFF83891B046504615D5CAF1000413E09C
:102C7000119801244AA3012801D16FEA0B0102989F
:102C8000119AC0E90031C0E9024206B0BDE8F09FE8
:102C9000CBF10000DFE704460021404A491842EB2F
:102CA0000450CDE9001012E0E00707D032463B4661
:102CB00040464946FFF779FC8046894632463B4606
:102CC00010461946FFF771FC06460F466410002CAB
:102CD000EAD1DDE90401DDE90023BAF1000F06DAEB
:102CE000FFF763FC42464B46FFF75FFC05E0FFF74A
:102CF00084FE42464B46FFF780FE04460E46002205
:102D0000284BFFF701FF03D84FF0FF30014607E0E3
:102D10000022254B20463146FFF7C8FDFFF7DCFEB9
:102D2000102409E0002C0ADB0A220023FFF7F9FC3B
:102D3000039B30321A55641E50EA0102F2D1641C22
:102D4000039AC4F111031444119A012A03D00122F9
:102D500008430DD10AE0084304D000204FF0110BC6
:102D6000119072E7A3EB0B056D1E0DE05B4504DDD2
:102D70004FF0000205F1010504E003DA4FF0000214
:102D8000A5F10105002AECD002981199C0E90231A1
:102D9000C0E9004579E70000000014400000F03F62
:102DA000300000000000F0430000E03F2DE9FF4F3D
:102DB00095B09B468946064600250FE2252877D127
:102DC00000242746F84A0121059400E0044316F840
:102DD000013F203B01FA03F01042F7D130782A2856
:102DE00011D06FF02F033078A0F13002092A16D8E5
:102DF000059A44F0020402EB820203EB4202104403
:102E0000761C0590EFE759F8042B0592002A03DAA7
:102E1000504244F40054059044F00204761C30788B
:102E20002E2816D116F8010F44F004042A280DD0DC
:102E30006FF02F023078A0F13003092B09D807EB8F
:102E4000870302EB4303C718761CF3E759F8047BAA
:102E5000761C30786C280FD006DC4C2817D06828F8
:102E60000DD06A2814D104E0742810D07A280FD12C
:102E70000DE044F400140AE044F4801401E044F44A
:102E800040147278824202D104F58014761C761CBC
:102E9000307866280BD013DC582877D009DC00285E
:102EA00075D04528F6D04628F4D047281AD19DE1A0
:102EB00018E0632835D0642879D0652812D195E1CF
:102EC000702873D008DC6728F1D069286FD06E288D
:102ED0000DD06F2806D1B5E073282CD0752875D099
:102EE000782874D05A46179990476D1C75E1C4F341
:102EF0000250022809D003280DD0D9F80010042868
:102F00000DD00D6009F1040967E1D9F80010EA1746
:102F1000C1E90052F6E7D9F800100D80F2E70D7014
:102F2000F0E719F8041B8DF8001000208DF801005F
:102F3000EA46012003E059F804AB4FF0FF30610787
:102F40004FF0000102D40DE008F101018846B942BA
:102F50000FDA8045F8DB1AF808100029F4D108E0F0
:102F600008F1010188468142FADB1AF808100029AD
:102F7000F6D105985B46A0EB080721463846179A1C
:102F800000F094FA284400EB080507E04DE029E141
:102F90000DE01AF8010B5A4617999047B8F101084D
:102FA000F7D25B4621463846179A13E142E00A22DF
:102FB0000092C4F302524FF0000A022A08D059F8D6
:102FC00004CB032A4FEAEC710AD00DE029E02AE095
:102FD00009F1070121F00702F2E802C1914609E078
:102FE0000FFA8CFC4FEAEC71042A03D14FFA8CFCE7
:102FF0004FEAEC71002907DA0A460021DCF1000CE7
:1030000061EB02012D2202E0220504D52B228DF86E
:103010000420012203E0E20701D02022F7E79046D6
:1030200059E00A2102E010220DE010214FF0000AC1
:1030300000910BE010224FF0000A44F0040408272E
:10304000009203E008224FF0000A0092C4F30252FB
:10305000022A05D059F804CB0021032A08D009E040
:1030600009F1070121F00702F2E802C1914605E0EB
:103070001FFA8CFC042A01D10CF0FF0C4FF0000861
:10308000220728D5702806D0009B83F0100353EA4E
:103090000A0305D00EE040228DF80420012208E04A
:1030A0005CEA010206D030228DF804208DF805007C
:1030B00002229046009B83F0080353EA0A030AD1D8
:1030C0005CEA010201D1620705D530228DF80420A7
:1030D0004FF001087F1E582804D034A003900EA89A
:1030E00002900DE036A0F9E753466046009AFFF7DC
:1030F00018FB84460398825C0298401E029002707E
:103100005CEA0100F0D1029806A9081A00F1200A31
:10311000600702D524F4803400E00127574502DD22
:10312000A7EB0A0000E0002000EB0A0100900598E0
:103130004144401A0590E00306D45B462146179AA5
:10314000059800F0B3F90544002706E001A85A46A7
:10315000C05D179990476D1C7F1C4745F6DBE00367
:103160000CD55B462146179A059800F09FF9054457
:1031700004E030205A46179990476D1C0099481E6C
:1031800000900029F5DC08E0029802995A46007880
:10319000491C0291179990476D1CBAF10001AAF1E0
:1031A000010AF1DC65E10000092801003031323309
:1031B0003435363738396162636465660000000073
:1031C000303132333435363738394142434445465D
:1031D0000000000000F058F90544761C3078002803
:1031E0007FF4ECAD19B02846BDE8F08F620700D43B
:1031F000062709F1070222F0070CFCE80223E1464A
:1032000003F000485FEA080C02D00FF2702C0DE0CA
:103210005FEA045C02D50FF2682C07E05FEAC47C29
:1032200002D00FF2602C01E0AFF2700C4FF0FF38CB
:1032300023F00043CDF850C065280CD006DC4528AB
:1032400009D046281DD047283DD13DE0662818D03A
:1032500067287ED138E00021112F01DB112000E02A
:10326000781CCDE9000106A90EA8FFF7DDFCDDE919
:103270000F010E9A03910021009207F1010A0491B7
:103280004DE04FF000400097CDE9011006A90EA8CF
:10329000FFF7CAFCDDE90F0203920E9B1199002291
:1032A000DDF80CA00093049211B9791C00EB010A1F
:1032B000B7EB0A0004D4C0F1FF3007F1010A049013
:1032C000AAEB0700019044E0012F00DA012700215A
:1032D000112F01DD112000E03846CDE9000106A9DB
:1032E0000EA8FFF7A1FCDDE90F010E9A0391002162
:1032F00004910092BA4621070CD40399514500DA93
:103300008A46BAF1010F05DD009AAAF10101515C6C
:10331000302908D0B84202DA10F1040F06DA012190
:10332000CDE9011015E0AAF10101E9E7002805DC6B
:10333000049901440491AAEB000102E0411C5145AB
:1033400000DD8A460499401A401C01904FF000406D
:103350000290200704D40198504501DBCDF8048089
:1033600000208DF84F0002980DF14F07B0F1004F8B
:1033700025D02B200E9002984FF0020800280CDA7E
:10338000404202902D200E9007E00A210298FFF79C
:10339000B2F93031029007F8011DB8F10001A8F12F
:1033A0000108F2DC02980028EFD1791E0E9808700F
:1033B000307800F0200040F0450007F8020D12A818
:1033C000C01B00F107081498007800B1012000EB41
:1033D0000A01019801EBE07105984144401A401E32
:1033E0000590E00306D45B462146179A059800F045
:1033F0005DF805441498007818B15A46179990471B
:103400006D1CE00324D55B462146179A059800F011
:103410004DF805441CE00498002807DBDDE90301B2
:10342000884203DD0098405C179901E0179930202D
:103430005A469047049805F10105401C04900198F4
:10344000401E019004D12E205A46179990476D1CBA
:10345000BAF10001AAF1010ADDDC05E017F8010B61
:103460005A46179990476D1CB8F10001A8F1010860
:10347000F4DC5B462146179A0598ABE62D00000068
:103480002B000000200000002DE9F041044600253B
:103490001E461746880404D405E039462020B0476C
:1034A0006D1C641EF9D52846BDE8F0812DE9F04178
:1034B000044600251E469046C80301D5302700E08B
:1034C0002027880404D505E041463846B0476D1CE6
:1034D000641EF9D52846BDE8F0810A68531C0B60CC
:1034E000107070470D0AB1BEC4A3BFE957494649E1
:1034F000CEAA2573A3ACC3DCC2EBBFAAB7C50D0A25
:10350000415020495020CEAAA3BA2573A3ACBFAA2C
:10351000C6F4B5C4B6CBBFDACEAAA3BA25730D0ADA
:10352000CAD6BBFACDF8C2E7D6FACAD6C1ACBDD36B
:10353000B8C320495020BACDB6CBBFDAA3ACD7EE82
:10354000B6E0BFC9C1ACBDD335B8F6BFCDBBA7B6D9
:10355000CB0D0A0074350008000000203400000084
:10356000082C0008A83500083400002004080000DA
:10357000182C000800A24A0400000000000000000F
:103580000102030406070809000000000102030409
:1035900001020304060708090204060800000000EF
:0835A000000000000000000023
:0400000508000131BD
:00000001FF
